:1000000004308A00E92C000083164A080739F700FB
:100010004A0CF800F80CF80C1F30F80578084C076B
:10002000840083134D188317F801F80AF70A19287A
:10003000F80DF70B1828CB0803192128780880043D
:100040002428F809780880058312080083164A08D6
:100050000739F7004A0CF800F80CF80C1F30F805C7
:1000600078084B07840083134C1883170008F800A6
:10007000F70A3B28F80CF70B3A2883128A110A1268
:10008000922883160317C612831203133918A02867
:1000900083164208C600C8014808073C031C6A28AA
:1000A0000310C60D031C5F284808CA000130CB00AE
:1000B000CD01C730CC00831204206728831648087E
:1000C000CA00CB01CD01C730CC00831204208316B7
:1000D000C80A4C28C901C718C90AC710C71BC714CA
:1000E000C7134918C717C9014719C90A4711471B40
:1000F0004715471349184717C901C719C90AC71136
:10010000C71AC715C7124918C716C901C801480838
:10011000073C031C9B284808CA00CC01C730CB0011
:10012000831226287818962803109728031483161C
:10013000C90DC80A87284908F8007808C200831248
:1001400083164108C6004208C700C901C801C90199
:100150004608C8000310C80DC90D0310C80DC90D0D
:100160000310C80DC90D0310C80DC90D0310C80D2B
:10017000C90D0310C80DC90D0310C80DC90D03101A
:10018000C80DC90D4708C8044808F8004908F90017
:100190007908C5007808C4008610831286101030D4
:1001A0008316C300C3080319FD2801304302C600AB
:1001B0004508FA004408F9004608F7000319E52845
:1001C0000310FA0CF90CF70BE0287908791CED28DC
:1001D000061083120614F0288316061083120610E8
:1001E000831606118312061500008316061183126A
:1001F000061100008316C303D2280317C616031383
:1002000086108312861408008316861083128610C7
:100210008316CD014D08073C031C30294D08073CCF
:10022000F8004B08F700F80803191A290310F70C17
:10023000F80B162977080139031D222983120610AD
:1002400024298316831206148316061006118312BE
:10025000061583160611831206118316CD0A0A2984
:10026000CD014D08073C031C57294D08073CF800F9
:100270004C08F700F808031941290310F70CF80B94
:100280003D2977080139031D4929831206104B299E
:1002900083168312061483160610061183120615A0
:1002A00083160611831206118316CD0A3129861092
:1002B0008312861408008316C001061183120611EA
:1002C0000000831686108312861439140B308316AF
:1002D000C1000730C200831241200C308316C100D8
:1002E0000130C200831241208316C008031D7F29FC
:1002F0000930C100C20183124120852983160930CB
:10030000C100FF30C200831241200A308316C100B1
:100310000730C2008312412039108316401C9329F4
:1003200083123914831601308312BA000030831609
:100330008600860183128601FF30831688008801BB
:10034000831288010F308316CB00CC018312042165
:100350000C308316CB000130CC00831204210B300B
:100360008316CB000730CC00831204210A30831699
:10037000CB000F30CC008312042109308316CB0050
:10038000CC01831204218A110A12322D0130831606
:10039000C0004008083C031CE329013040023B3EFA
:1003A000840083138001013040023B3E84008313AC
:1003B0000008C1004008CB004108CC008312042192
:1003C0008316C00AC92983128A110A12342D2508FE
:1003D0008316C900831224088316C80083122308D9
:1003E0008316C700831222088316C6004130CD0051
:1003F000C630CC004E30CB006D30CA002030D20069
:10040000CE01CF01D001D1014908FA004808F90016
:100410004708F8004608F7000310771C1D2A4A0811
:10042000CE074B0803184B0FCF074C0803184C0F8F
:10043000D0074D0803184D0FD107D10CD00CCF0CAD
:10044000CE0CFA0CF90CF80CF70CD20B0C2A7A082B
:10045000C9007908C8007808C7007708C600393095
:1004600046078312A200831647088312A300303088
:1004700003183130A307831648088312A400003004
:1004800003180130A407831649088312A500003021
:1004900003180130A5072408F7002508F800F90122
:1004A000FA0178088316C8007708C7004808CA0010
:1004B0004708C9007F30CC00FF30CB00F801F901BC
:1004C000F701FA014C08031D682A4B080319822A18
:1004D0001030CD000310C90DCA0DF70DFA0D4C08F0
:1004E0007A02031D752A4B087702031C7E2A4B08EB
:1004F000F702031CFA034C08FA020314F80DF90D75
:10050000CD0B6A2A7708F8007A08F90083120800F0
:10051000C63084008313000803199C2A0130F800B8
:10052000F701F70B912AF80B902A4A30F700F70BE6
:10053000972A9A2A800B8E2A0800013083164802D7
:100540003B3E8400831301304902F8000130F7007C
:10055000F8080319AF2A0310F70DF80BAB2A770838
:1005600000048000013048023B3E840083130008F1
:10057000CA004808CB004A08CC00831204210800B6
:100580000130831648023B3E840083130130490248
:10059000F8000130F700F8080319D22A0310F70D0C
:1005A000F80BCE2A7708FF3A000580000130480298
:1005B0003B3E840083130008CA004808CB004A0869
:1005C000CC008312042108008316C901C801C701A9
:1005D000831243088316C60049088312A5008316B8
:1005E00048088312A400831647088312A3008316C9
:1005F00046088312A2008316C001831243088316A3
:10060000400203184F2BC3018312E7217908831698
:10061000C7007808C6000739F700FA017708013EDD
:10062000C1008312E72179088316C7007808C60045
:100630000739F700FA017708013EC200C4014008FB
:10064000440203183B2B0310440D443E84008313E3
:1006500041080002031D392B0310440D013E443EA6
:100660008400831342080002031D392B0130C300AC
:100670003B2BC40A1F2BC308031D032B0310400D83
:10068000443E84008313410880000310400D013E66
:10069000443E8400831342088000C00AFD2AC5013D
:1006A000831243088316450203188E2B4B30C60075
:1006B0008312882203108316450D443E8400831361
:1006C0000008C6000310450D013E443E840083131C
:1006D0000008C7004608C8004708C90083129D22C9
:1006E0007D308316C6008312882203108316450DC1
:1006F000443E840083130008C6000310450D013EEC
:10070000443E840083130008C7004608C800470819
:10071000C9008312C0228316C50A502B01308312F0
:10072000E5008A110A12382D8316C201831264086B
:10073000831642020318B42B0310420DA03E84001E
:10074000831340080002031DB22B0310420D013E2B
:10075000A03E8400831341080002031DB22B013028
:10076000F800B62BC20A962B0030F800831208005E
:100770008316C00183124308831640020318E72B37
:100780000310400DA03E840083130008C100031035
:10079000400D443E8400831300084102031DE22BF8
:1007A0000310400D013EA03E840083130008C100E9
:1007B0000310400D013E443E8400831300084102B3
:1007C0000319E52B0030F800E92BC00ABA2B0130E1
:1007D000F80083120800831688158312881D1A2CCE
:1007E00066088316C000831267088316C10083124F
:1007F0009423F808031D052C66088316C80083128D
:1008000067088316C9008312C022E70A6708083CFC
:1008100003180C2C0130E70066088316C800831209
:1008200067088316C90083129D224B308316C600C9
:1008300083128822831688148312881C462C66082B
:100840008316C000831267088316C10083129423A5
:10085000F808031D342C66088316C8008312670845
:100860008316C9008312C022E70B382C0830E7003A
:1008700066088316C800831267088316C9008312AE
:100880009D224B308316C6008312882283160815DA
:100890008312081D722C66088316C0008312670835
:1008A0008316C10083129423F808031D602C660888
:1008B0008316C800831267088316C9008312C022FA
:1008C000E60B642C0830E60066088316C800831225
:1008D00067088316C90083129D224B308316C60019
:1008E00083128822831608168312081EA12C66081C
:1008F0008316C000831267088316C10083129423F5
:10090000F808031D8C2C66088316C800831267083C
:100910008316C9008312C022E60A6608083C031841
:10092000932C0130E60066088316C800831267081E
:100930008316C90083129D224B308316C600831292
:100940008822831608148312081CE62C6608831676
:10095000C800831267088316C90083129D22031002
:10096000640DA03E84008313660880000310640DAC
:10097000013EA03E8400831367088000E40A4B30E8
:100980008316C6008312882243086402031DE62CE6
:10099000B823F808031DDB2CE501831686118312AA
:1009A0008615FA308316C6008312882283168611B4
:1009B00083128611E12CB823F8080319E12CC30A2D
:1009C000E5014B308316C600831288228A110A1271
:1009D000452DA801AA01A901AC01AB01AD01B801E7
:1009E0000130C300E401E501E600E70083161F14AF
:1009F0009F141F159F1107309C008312A7016830B8
:100A0000A6000C30E800EA01D330E9001A30831662
:100A1000D3000130D5001030D4005D3083120317AD
:100A2000900001309200903091005D30831690006C
:100A3000920191018312031383131F308305A001D8
:100A4000A101B001B101B201B301B401B501B60118
:100A5000B701BB01BC01BD01BE01BF01C001C101A5
:100A6000C2015B29E401C6290130E600E700E42A5F
:100A700066088316C800831267088316C9008312AC
:100A80009D22E5080319462DEB2B412D322D6300E5
:02400E00723FFF
:00000001FF
;PIC16F877A
;CRC=FE5F  CREATED="28-Kas-23 06:39"
